{
  "_format": "hh-sol-artifact-1",
  "contractName": "HelloWorld",
  "sourceName": "contracts/HelloWorld.sol",
  "abi": [
    {
      "inputs": [],
      "stateMutability": "nonpayable",
      "type": "constructor"
    },
    {
      "inputs": [],
      "name": "getName",
      "outputs": [
        {
          "internalType": "string",
          "name": "",
          "type": "string"
        }
      ],
      "stateMutability": "view",
      "type": "function"
    },
    {
      "inputs": [],
      "name": "getText",
      "outputs": [
        {
          "internalType": "string",
          "name": "",
          "type": "string"
        }
      ],
      "stateMutability": "view",
      "type": "function"
    },
    {
      "inputs": [],
      "name": "name",
      "outputs": [
        {
          "internalType": "string",
          "name": "",
          "type": "string"
        }
      ],
      "stateMutability": "view",
      "type": "function"
    },
    {
      "inputs": [
        {
          "internalType": "string",
          "name": "newName",
          "type": "string"
        }
      ],
      "name": "setName",
      "outputs": [],
      "stateMutability": "nonpayable",
      "type": "function"
    },
    {
      "inputs": [
        {
          "internalType": "string",
          "name": "newText",
          "type": "string"
        }
      ],
      "name": "setText",
      "outputs": [],
      "stateMutability": "nonpayable",
      "type": "function"
    },
    {
      "inputs": [],
      "name": "text",
      "outputs": [
        {
          "internalType": "string",
          "name": "",
          "type": "string"
        }
      ],
      "stateMutability": "view",
      "type": "function"
    }
  ],
  "bytecode": "0x60806040523480156200001157600080fd5b506040518060400160405280600c81526020017f44656661756c742d4e616d6500000000000000000000000000000000000000008152506000908162000058919062000320565b506040518060400160405280601881526020017f48656c6c6f20776f726c64206d79206e616d652069733a200000000000000000815250600190816200009f919062000320565b5062000407565b600081519050919050565b7f4e487b7100000000000000000000000000000000000000000000000000000000600052604160045260246000fd5b7f4e487b7100000000000000000000000000000000000000000000000000000000600052602260045260246000fd5b600060028204905060018216806200012857607f821691505b6020821081036200013e576200013d620000e0565b5b50919050565b60008190508160005260206000209050919050565b60006020601f8301049050919050565b600082821b905092915050565b600060088302620001a87fffffffffffffffffffffffffffffffffffffffffffffffffffffffffffffffff8262000169565b620001b4868362000169565b95508019841693508086168417925050509392505050565b6000819050919050565b6000819050919050565b600062000201620001fb620001f584620001cc565b620001d6565b620001cc565b9050919050565b6000819050919050565b6200021d83620001e0565b620002356200022c8262000208565b84845462000176565b825550505050565b600090565b6200024c6200023d565b6200025981848462000212565b505050565b5b8181101562000281576200027560008262000242565b6001810190506200025f565b5050565b601f821115620002d0576200029a8162000144565b620002a58462000159565b81016020851015620002b5578190505b620002cd620002c48562000159565b8301826200025e565b50505b505050565b600082821c905092915050565b6000620002f560001984600802620002d5565b1980831691505092915050565b6000620003108383620002e2565b9150826002028217905092915050565b6200032b82620000a6565b67ffffffffffffffff811115620003475762000346620000b1565b5b6200035382546200010f565b6200036082828562000285565b600060209050601f83116001811462000398576000841562000383578287015190505b6200038f858262000302565b865550620003ff565b601f198416620003a88662000144565b60005b82811015620003d257848901518255600182019150602085019450602081019050620003ab565b86831015620003f25784890151620003ee601f891682620002e2565b8355505b6001600288020188555050505b505050505050565b61084780620004176000396000f3fe608060405234801561001057600080fd5b50600436106100625760003560e01c806306fdde031461006757806317d7de7c146100855780631f1bd692146100a35780635d3a1f9d146100c1578063c47f0027146100dd578063e00fe2eb146100f9575b600080fd5b61006f610117565b60405161007c9190610413565b60405180910390f35b61008d6101a5565b60405161009a9190610413565b60405180910390f35b6100ab610237565b6040516100b89190610413565b60405180910390f35b6100db60048036038101906100d691906104a4565b6102c5565b005b6100f760048036038101906100f291906104a4565b6102db565b005b6101016102f1565b60405161010e9190610413565b60405180910390f35b6000805461012490610520565b80601f016020809104026020016040519081016040528092919081815260200182805461015090610520565b801561019d5780601f106101725761010080835404028352916020019161019d565b820191906000526020600020905b81548152906001019060200180831161018057829003601f168201915b505050505081565b6060600080546101b490610520565b80601f01602080910402602001604051908101604052809291908181526020018280546101e090610520565b801561022d5780601f106102025761010080835404028352916020019161022d565b820191906000526020600020905b81548152906001019060200180831161021057829003601f168201915b5050505050905090565b6001805461024490610520565b80601f016020809104026020016040519081016040528092919081815260200182805461027090610520565b80156102bd5780601f10610292576101008083540402835291602001916102bd565b820191906000526020600020905b8154815290600101906020018083116102a057829003601f168201915b505050505081565b8181600191826102d6929190610741565b505050565b8181600091826102ec929190610741565b505050565b60606001805461030090610520565b80601f016020809104026020016040519081016040528092919081815260200182805461032c90610520565b80156103795780601f1061034e57610100808354040283529160200191610379565b820191906000526020600020905b81548152906001019060200180831161035c57829003601f168201915b5050505050905090565b600081519050919050565b600082825260208201905092915050565b60005b838110156103bd5780820151818401526020810190506103a2565b60008484015250505050565b6000601f19601f8301169050919050565b60006103e582610383565b6103ef818561038e565b93506103ff81856020860161039f565b610408816103c9565b840191505092915050565b6000602082019050818103600083015261042d81846103da565b905092915050565b600080fd5b600080fd5b600080fd5b600080fd5b600080fd5b60008083601f8401126104645761046361043f565b5b8235905067ffffffffffffffff81111561048157610480610444565b5b60208301915083600182028301111561049d5761049c610449565b5b9250929050565b600080602083850312156104bb576104ba610435565b5b600083013567ffffffffffffffff8111156104d9576104d861043a565b5b6104e58582860161044e565b92509250509250929050565b7f4e487b7100000000000000000000000000000000000000000000000000000000600052602260045260246000fd5b6000600282049050600182168061053857607f821691505b60208210810361054b5761054a6104f1565b5b50919050565b600082905092915050565b7f4e487b7100000000000000000000000000000000000000000000000000000000600052604160045260246000fd5b60008190508160005260206000209050919050565b60006020601f8301049050919050565b600082821b905092915050565b6000600883026105ed7fffffffffffffffffffffffffffffffffffffffffffffffffffffffffffffffff826105b0565b6105f786836105b0565b95508019841693508086168417925050509392505050565b6000819050919050565b6000819050919050565b600061063e6106396106348461060f565b610619565b61060f565b9050919050565b6000819050919050565b61065883610623565b61066c61066482610645565b8484546105bd565b825550505050565b600090565b610681610674565b61068c81848461064f565b505050565b5b818110156106b0576106a5600082610679565b600181019050610692565b5050565b601f8211156106f5576106c68161058b565b6106cf846105a0565b810160208510156106de578190505b6106f26106ea856105a0565b830182610691565b50505b505050565b600082821c905092915050565b6000610718600019846008026106fa565b1980831691505092915050565b60006107318383610707565b9150826002028217905092915050565b61074b8383610551565b67ffffffffffffffff8111156107645761076361055c565b5b61076e8254610520565b6107798282856106b4565b6000601f8311600181146107a85760008415610796578287013590505b6107a08582610725565b865550610808565b601f1984166107b68661058b565b60005b828110156107de578489013582556001820191506020850194506020810190506107b9565b868310156107fb57848901356107f7601f891682610707565b8355505b6001600288020188555050505b5050505050505056fea2646970667358221220241359f2bb3ae51beec87d4319d42a7bf1f0c02b72876fa6c46dfb7ac8406b8d64736f6c63430008110033",
  "linkReferences": {},
  "deployedLinkReferences": {}
}